:100000000C942A000C9447000C9447000C94470071
:100010000C9447000C9447000C9447000C94470044
:100020000C9447000C9447000C9447000C94470034
:100030000C9447000C9447000C9447000C94470024
:100040000C9447000C9447000C9447000C94470014
:100050000C94470011241FBECFE5D4E0DEBFCDBF16
:1000600010E0A0E6B0E0ECE3FBE002C005900D92EA
:10007000A23FB107D9F720E0A2EFB0E001C01D9286
:10008000A43FB207E1F70E94B2000C949C050C94C7
:1000900000002AB128612AB920B5266820BDDC01FC
:1000A000CB01880F991FAA1FBB1F880F991FAA1F7A
:1000B000BB1F9C01AD01220F331F441F551F220F90
:1000C000331F441F551F60E074E284EF90E00E94EC
:1000D0007A058FEF820F89B9DA01C9010197A10969
:1000E000B109892F9A2FAB2FBB2780BD08955F9B45
:1000F000FECF8CB108958CB95D9BFECF0895CF9350
:10010000DF93EC018881882331F021960E947B00E7
:1001100089918111FBCFDF91CF910895019709F566
:100120001BBAD898D99A8FE19EE40197F1F700C0E5
:100130000000D9988FE39CE90197F1F700C0000017
:1001400080E18BBBD898D99A8FE19EE40197F1F7B3
:1001500000C00000D9988FE39CE90197F1F700C037
:10016000000008958AB3806F8ABB8AB383608ABB1C
:100170001BBAD898D99A8FE19EE40197F1F700C095
:100180000000D998AFE3BCE91197F1F700C0000077
:1001900080E28BBBD898D99AEFE1FEE43197F1F772
:1001A00000C00000D998AFE3BCE91197F1F700C097
:1001B00000008BBBD898D99AEFE1FEE43197F1F7B4
:1001C00000C00000D9988FE39CE90197F1F700C0C7
:1001D000000080E88BBBD898D99AAFE1BEE41197B4
:1001E000F1F700C00000D998EFE3FCE93197F1F78F
:1001F00000C000001BBAD898D99AAFE1BEE41197AD
:10020000F1F700C00000D998EFE3FCE93197F1F76E
:1002100000C0000090E19BBBD898D99AAFE1BEE442
:100220001197F1F700C00000D998EFE3FCE931978E
:10023000F1F700C000001BBAD898D99AAFE1BEE42C
:100240001197F1F700C00000D998EFE3FCE931976E
:10025000F1F700C0000090EE9BBBD898D99AAFE1AF
:10026000BEE41197F1F700C00000D998EFE3FCE974
:100270003197F1F700C000008BBBD898D99A8FE175
:100280009EE40197F1F700C00000D998AFE3BCE904
:100290001197F1F700C000001BBAD898D99AEFE186
:1002A000FEE43197F1F700C00000D9988FE39CE994
:1002B0000197F1F700C000008FEF8ABB87BB84BBBA
:1002C00081BB1BBA18BA15BA12BA60E875E280E0B1
:1002D00090E00E944900812C712CB12CC12C0F2E72
:1002E000F0EC6F2EF02D6894EE24E4F86894DD2491
:1002F000D3F811E06894FF24F2F86894AA24A6F8D1
:100300006894992495F86894552451F8C1E0D0E098
:100310000E947700082F8091F2009091F3000E94D4
:100320008E00013781F588B3812788BBE1E6F0E0D4
:100330008CE4982F907F9BBBD89AD99AAFE1BEE40A
:100340001197F1F700C00000D998AFE3BCE911970D
:10035000F1F700C00000B0E18B9FC00111248BBBFE
:10036000D89AD99A8FE19EE40197F1F700C0000076
:10037000D998AFE3BCE91197F1F700C00000819173
:100380008111D7CF9EC3073781F588B3852588BBF8
:10039000E6E6F0E08CE4982F907F9BBBD89AD99A40
:1003A000AFE1BEE41197F1F700C00000D998AFE3C8
:1003B000BCE91197F1F700C00000B0E18B9FC001CC
:1003C00011248BBBD89AD99A8FE19EE40197F1F75B
:1003D00000C00000D998AFE3BCE91197F1F700C065
:1003E000000081918111D7CF6CC3053681F588B3A8
:1003F0008F2588BBEBE6F0E08CE4982F907F9BBBC9
:10040000D89AD99AAFE1BEE41197F1F700C0000085
:10041000D998AFE3BCE91197F1F700C00000B0E153
:100420008B9FC00111248BBBD89AD99A8FE19EE48F
:100430000197F1F700C00000D998AFE3BCE911972C
:10044000F1F700C0000081918111D7CF3AC3023784
:1004500081F588B38D2588BBE0E7F0E08CE4982F28
:10046000907F9BBBD89AD99AAFE1BEE41197F1F780
:1004700000C00000D998AFE3BCE91197F1F700C0C4
:100480000000B0E18B9FC00111248BBBD89AD99A90
:100490008FE19EE40197F1F700C00000D998AFE327
:1004A000BCE91197F1F700C0000081918111D7CF0D
:1004B00008C3043781F588B38E2588BBE5E7F0E0F3
:1004C0008CE4982F907F9BBBD89AD99AAFE1BEE479
:1004D0001197F1F700C00000D998AFE3BCE911977C
:1004E000F1F700C00000B0E18B9FC00111248BBB6D
:1004F000D89AD99A8FE19EE40197F1F700C00000E5
:10050000D998AFE3BCE91197F1F700C000008191E1
:100510008111D7CFD6C2093781F588B3892588BB29
:10052000EAE7F0E08CE4982F907F9BBBD89AD99AA9
:10053000AFE1BEE41197F1F700C00000D998AFE336
:10054000BCE91197F1F700C00000B0E18B9FC0013A
:1005500011248BBBD89AD99A8FE19EE40197F1F7C9
:1005600000C00000D998AFE3BCE91197F1F700C0D3
:10057000000081918111D7CFA4C2053781F588B3DE
:100580008A2588BBEFE7F0E08CE4982F907F9BBB37
:10059000D89AD99AAFE1BEE41197F1F700C00000F4
:1005A000D998AFE3BCE91197F1F700C00000B0E1C2
:1005B0008B9FC00111248BBBD89AD99A8FE19EE4FE
:1005C0000197F1F700C00000D998AFE3BCE911979B
:1005D000F1F700C0000081918111D7CF72C20936B6
:1005E00081F588B3805888BBE4E8F0E08CE4982F6C
:1005F000907F9BBBD89AD99AAFE1BEE41197F1F7EF
:1006000000C00000D998AFE3BCE91197F1F700C032
:100610000000B0E18B9FC00111248BBBD89AD99AFE
:100620008FE19EE40197F1F700C00000D998AFE395
:10063000BCE91197F1F700C0000081918111D7CF7B
:1006400040C20D3609F058C0BB2009F43FC28BB33D
:1006500080588BBB8BB38A258BBBC126E9E8F0E0C1
:100660008DE4982F907F9BBBD89AD99AAFE1BEE4D6
:100670001197F1F700C00000D998AFE3BCE91197DA
:10068000F1F700C00000B0E18B9FC00111248BBBCB
:10069000D89AD99A8FE19EE40197F1F700C0000043
:1006A000D998AFE3BCE91197F1F700C00000819140
:1006B0008111D7CF1BBAD898D99AEFE1FEE43197D0
:1006C000F1F700C00000D9988FE39CE90197F1F79A
:1006D00000C00000EBBAD898D99AAFE1BEE41197F8
:1006E000F1F700C00000D998EFE3FCE93197F1F78A
:1006F00000C00000B12CE5C10E3609F058C0CC2076
:1007000009F4E9C18BB38A258BBB8BB380588BBBB3
:10071000B126E4E9F0E08DE4982F907F9BBBD89A56
:10072000D99AAFE1BEE41197F1F700C00000D99863
:10073000AFE3BCE91197F1F700C00000B0E18B9F77
:10074000C00111248BBBD89AD99A8FE19EE40197FE
:10075000F1F700C00000D998AFE3BCE91197F1F7B9
:1007600000C0000081918111D7CF1BBAD898D99AC7
:10077000EFE1FEE43197F1F700C00000D9988FE374
:100780009CE90197F1F700C00000EBBAD898D99A1C
:10079000AFE1BEE41197F1F700C00000D998EFE394
:1007A000FCE93197F1F700C00000C12C8AC10C327E
:1007B00009F058C0882009F493C182B38D2582BB0B
:1007C00082B38F2582BB7126EFE9F0E08DE4982F8C
:1007D000907F9BBBD89AD99AAFE1BEE41197F1F70D
:1007E00000C00000D998AFE3BCE91197F1F700C051
:1007F0000000B0E18B9FC00111248BBBD89AD99A1D
:100800008FE19EE40197F1F700C00000D998AFE3B3
:10081000BCE91197F1F700C0000081918111D7CF99
:100820001BBAD898D99AEFE1FEE43197F1F700C0EE
:100830000000D9988FE39CE90197F1F700C0000010
:10084000EBBAD898D99AAFE1BEE41197F1F700C09E
:100850000000D998EFE3FCE93197F1F700C0000000
:10086000812C2FC10E3209F058C0772009F43DC108
:1008700082B38F2582BB82B38D2582BB8126EAEAB3
:10088000F0E08DE4982F907F9BBBD89AD99AAFE186
:10089000BEE41197F1F700C00000D998AFE3BCE9BE
:1008A0001197F1F700C00000B0E18B9FC001112447
:1008B0008BBBD89AD99A8FE19EE40197F1F700C0DB
:1008C0000000D998AFE3BCE91197F1F700C0000030
:1008D00081918111D7CF1BBAD898D99AEFE1FEE464
:1008E0003197F1F700C00000D9988FE39CE9019798
:1008F000F1F700C00000EBBAD898D99AAFE1BEE496
:100900001197F1F700C00000D998EFE3FCE93197A7
:10091000F1F700C00000712CD4C00F3609F055C0AB
:10092000E5EBF0E085E4982F907F9BBBD89AD99AAD
:10093000AFE1BEE41197F1F700C00000D998AFE332
:10094000BCE91197F1F700C00000B0E18B9FC00136
:1009500011248BBBD89AD99A8FE19EE40197F1F7C5
:1009600000C00000D998AFE3BCE91197F1F700C0CF
:10097000000081918111D7CF1BBA18BA15BA12BAEB
:100980001BBAD898D99AEFE1FEE43197F1F700C08D
:100990000000D9988FE39CE90197F1F700C00000AF
:1009A000EBBAD898D99AAFE1BEE41197F1F700C03D
:1009B0000000D998EFE3FCE93197F1F700C000009F
:1009C000812C712CB12CC12C7CC084EC90E00E9455
:1009D0007F00ECEDF0E083E5982F907F9BBBD89AE9
:1009E000D99AAFE1BEE41197F1F700C00000D998A1
:1009F000AFE3BCE91197F1F700C00000B0E18B9FB5
:100A0000C00111248BBBD89AD99A8FE19EE401973B
:100A1000F1F700C00000D998AFE3BCE91197F1F7F6
:100A200000C0000081918111D7CF6BBAD898D99AB4
:100A3000EFE1FEE43197F1F700C00000D9988FE3B1
:100A40009CE90197F1F700C000001BBAD898D99A29
:100A5000AFE1BEE41197F1F700C00000D998EFE3D1
:100A6000FCE93197F1F700C00000EAEEF0E08FE416
:100A7000982F907F9BBBD89AD99AAFE1BEE411978B
:100A8000F1F700C00000D998AFE3BCE91197F1F786
:100A900000C00000B0E18B9FC00111248BBBD89A2D
:100AA000D99A8FE19EE40197F1F700C00000D99830
:100AB000AFE3BCE91197F1F700C00000819181110B
:100AC000D7CFD093F300C093F20022CC8BB38A250A
:100AD0008BBBC126C3CD8BB380588BBBB12619CE3F
:100AE00082B38F2582BB71266FCE82B38D2582BBE8
:100AF0008126C5CEA1E21A2EAA1BBB1BFD010DC08B
:100B0000AA1FBB1FEE1FFF1FA217B307E407F507BD
:100B100020F0A21BB30BE40BF50B661F771F881F99
:100B2000991F1A9469F760957095809590959B012F
:0C0B3000AC01BD01CF010895F894FFCF87
:100B3C004C454430004C454431004C454432004C4B
:100B4C00454433004C454434004C454435004C4539
:100B5C004436004C454437004D4F544F5230202DF5
:100B6C002D3E004D4F544F5230203C2D2D004D4FFB
:100B7C00544F5231203C2D2D004D4F544F523120AB
:100B8C002D2D3E0045564552595448494E47204F4D
:100B9C0046462E0053656C6563742050726F706509
:100BAC0072204F7074696F6E2E0D0053656C656307
:100BBC00742050726F706572004F7074696F6E2E76
:020BCC00000027
:00000001FF
